:100000000C9462000C948A000C948A000C948A0070
:100010000C948A000C948A000C948A000C948A0038
:100020000C948A000C948A000C948A000C9435037A
:100030000C948A000C948A000C948A000C948A0018
:100040000C94EB020C948A000C94B9020C94930269
:100050000C948A000C948A000C948A000C948A00F8
:100060000C948A000C948A000000000024002700F1
:100070002A0000000000250028002B0000000000DE
:1000800023002600290004040404040404040202DA
:100090000202020203030303030301020408102007
:1000A0004080010204081020010204081020000012
:1000B0000008000201000003040700000000000027
:1000C0000000BF0511241FBECFEFD8E0DEBFCDBFBB
:1000D00012E0A0E0B1E0E0E8F3E102C005900D928B
:1000E000A230B107D9F722E0A2E0B2E001C01D9230
:1000F000AD3BB207E1F710E0C2E6D0E004C02197C3
:10010000FE010E949308C136D107C9F70E945E061E
:100110000C94BE090C940000AF92BF92CF92DF9274
:10012000EF92FF920F931F93CF93DF936C017B01AC
:100130008B01040F151FEB015E01AE18BF08C0173D
:10014000D10759F06991D601ED91FC910190F081B0
:10015000E02DC6010995892B79F7C501DF91CF9173
:100160001F910F91FF90EF90DF90CF90BF90AF90D5
:100170000895FC01538D448D252F30E0842F90E0AD
:10018000821B930B541710F0CF9608950197089592
:10019000FC01918D828D981761F0A28DAE0FBF2F5B
:1001A000B11D5D968C91928D9F5F9F73928F90E0B1
:1001B00008958FEF9FEF0895FC01918D828D981720
:1001C00031F0828DE80FF11D858D90E008958FEF5D
:1001D0009FEF0895FC01918D228D892F90E0805C26
:1001E0009F4F821B91098F73992708958DE092E0AC
:1001F0000E94EA0021E0892B09F420E0822F089573
:1002000080E090E0892B29F00E94F60081110C9487
:1002100000000895FC01A48DA80FB92FB11DA35AA9
:10022000BF4F2C91848D90E001968F739927848F16
:10023000A689B7892C93A089B1898C918370806439
:100240008C93938D848D981306C00288F389E02DDA
:1002500080818F7D80830895EF92FF920F931F938B
:10026000CF93DF93EC0181E0888F9B8D8C8D981369
:100270001AC0E889F989808185FF15C09FB7F89475
:10028000EE89FF896083E889F989808183708064C1
:1002900080839FBF81E090E0DF91CF911F910F910C
:1002A000FF90EF900895F62E0B8D10E00F5F1F4F1B
:1002B0000F731127E02E8C8D8E110CC00FB607FC2A
:1002C000FACFE889F989808185FFF5CFCE010E94B8
:1002D0000A01F1CFEB8DEC0FFD2FF11DE35AFF4F1B
:1002E000F0829FB7F8940B8FEA89FB898081806246
:1002F000CFCFCF93DF93EC01888D8823B9F0AA8903
:10030000BB89E889F9898C9185FD03C0808186FDD0
:100310000DC00FB607FCF7CF8C9185FFF2CF80811F
:1003200085FFEDCFCE010E940A01E9CFDF91CF9189
:100330000895833081F028F4813099F08230A9F05B
:1003400008958730A9F08830C9F08430B1F48091E5
:1003500080008F7D03C0809180008F778093800024
:10036000089584B58F7784BD089584B58F7DFBCFC4
:100370008091B0008F778093B00008958091B00095
:100380008F7DF9CF1F93CF93DF93282F30E0F901B2
:10039000E255FF4F8491F901E656FF4FD491F901E0
:1003A000EA57FF4FC491CC23A9F0162F81110E9468
:1003B0009901EC2FF0E0EE0FFF1FEE58FF4FA591D3
:1003C000B4918FB7F894EC91111108C0D095DE2349
:1003D000DC938FBFDF91CF911F910895DE2BF8CF73
:1003E000CF93DF9390E0FC01E656FF4F24918A57AC
:1003F0009F4FFC0184918823D1F090E0880F991FD2
:10040000FC01E859FF4FA591B491FC01EE58FF4F54
:10041000C591D49161110EC09FB7F8948C91E22FD1
:10042000E0958E238C932881E223E8839FBFDF91A0
:10043000CF9108958FB7F894EC91E22BEC938FBF96
:10044000F6CF3FB7F8948091070290910802A091EF
:100450000902B0910A0226B5A89B05C02F3F19F0EA
:100460000196A11DB11D3FBFBA2FA92F982F882734
:10047000BC01CD01620F711D811D911D42E0660F0F
:10048000771F881F991F4A95D1F708958F929F92E1
:10049000AF92BF92CF92DF92EF92FF924B015C013D
:1004A0000E9421026B017C010E9421026C197D09CE
:1004B0008E099F09683E734081059105A8F321E0EC
:1004C000821A9108A108B10888EEC80E83E0D81EF0
:1004D000E11CF11C81149104A104B10429F7FF90DF
:1004E000EF90DF90CF90BF90AF909F908F90089546
:1004F000FC0101900020E9F73197AF01481B590B2F
:10050000BC018DE092E00C948C00CF93DF930E94AD
:100510007802EC0188E191E00E9478028C0F9D1F27
:10052000DF91CF9108951F920F920FB60F92112471
:100530002F933F934F935F936F937F938F939F93EB
:10054000AF93BF93EF93FF938DE092E00E940A0177
:10055000FF91EF91BF91AF919F918F917F916F919B
:100560005F914F913F912F910F900FBE0F901F9071
:1005700018951F920F920FB60F9211242F938F93FD
:100580009F93EF93FF93E0911D02F0911E028081F3
:10059000E0912302F091240282FD1BC090818091A2
:1005A00026028F5F8F7320912702821741F0E0911E
:1005B0002602F0E0E35FFD4F958F80932602FF91C6
:1005C000EF919F918F912F910F900FBE0F901F90E1
:1005D00018958081F4CF1F920F920FB60F921124BD
:1005E0002F933F938F939F93AF93BF938091030279
:1005F00090910402A0910502B0910602309102028E
:1006000023E0230F2D3758F50196A11DB11D20932E
:1006100002028093030290930402A0930502B09318
:1006200006028091070290910802A0910902B09100
:100630000A020196A11DB11D809307029093080242
:10064000A0930902B0930A02BF91AF919F918F913D
:100650003F912F910F900FBE0F901F90189526E895
:10066000230F0296A11DB11DD2CF1F920F920FB67C
:100670000F9211242F923F924F925F926F927F922E
:100680008F929F92AF92BF92CF92DF92EF92FF92A2
:100690000F931F932F933F934F935F936F937F938A
:1006A0008F939F93AF93BF93EF93FF93CF93DF937A
:1006B00000D000D0CDB7DEB7F8942091AA023091D7
:1006C000AB023A83298330E020E050E040E0A9818A
:1006D000BA8111968C9111978417150629F124F18E
:1006E0001296ED91FC91E20FF31F80818E3008F09D
:1006F0008E508770806480937C0080917A00806443
:1007000080937A0080917A0086FDFCCF90917800EA
:1007100080917900892798278927918780874F5F63
:100720005F4F245C3F4FD3CF312C212C10E000E0F1
:1007300050E6852E5AEE952EA12CB12CE981FA8136
:1007400081818017110609F00CF4EDC122813381FB
:10075000220D331D3C832B83D901D0964D905D90A3
:100760006D907C90D397F901808D918DA28DB38D82
:10077000480E591E6A1E7B1E40AA51AA62AA73AA7D
:1007800084899589A689B7897201E81AF90A86854C
:1007900097850C97978786878685978597FDC2C032
:1007A00086859785873F99400CF0BFC0D9011E967A
:1007B0008D919C91EB81FC819787868780859185BF
:1007C000C0ACD1AC8C159D05CCF48285938565E0D9
:1007D00070E00E943E08CB01880F991F680F791FB7
:1007E0006E157F055CF42085318586A997A92817A9
:1007F000390724F48085918597AB86ABAB81BC81AA
:1008000018968D919C911997C816D9069CF4189644
:100810002D913C911997D4968D919C91D5978217E3
:10082000930744F418968D919C911997D5969C93B3
:100830008E93D497BBEFEB16F1040CF4ACC0EB81B4
:10084000FC8180859185C816D9060CF0A4C08485EA
:100850008111A1C08285938565E070E00E943E0809
:10086000CB01880F991F680F791F6E157F050CF05B
:1008700092C021E0248784899589A689B789F201ED
:10088000E81BF90BAB81BC811B96FC93EE931A9786
:10089000FD01448A558A668A778A83AD882371F080
:1008A00013AE7C96CD01C096AB81BC811A962D917A
:1008B0003C91219331938E179F07B1F7EB81FC8117
:1008C00082AD8823A9F112AE21E023AFAB81BC81B8
:1008D00012968D919C91139797FD08C01C962C91B0
:1008E00061E0211101C060E00E94C201EB81FC8146
:1008F000E480F580F7FCEDC0868597856AE070E0BE
:100900000E943E087C836B8361E08E2D0E94F00183
:100910002B813C81232B09F0ACC060E08E2D0E941E
:10092000C201D7C090E080E045CF86EF99E042CF8A
:10093000EB81FC817C964B815C81425D5F4F30E0B6
:1009400020E08281938181939193280F391F4E1764
:100950005F07B9F7AB81BC811A968D919C911B976B
:100960009F969C938E939E97820F931F6AE070E0F0
:100970000E942A089B0150E040E0C501B4010E949A
:100980007408EB81FC813783268321E0258786EF7D
:1009900099E097878687AB81BC8118968D919C9151
:1009A00019978C159D053CF51C968C911C978823F6
:1009B00011F11C961C921C97D6964D915C91D7977D
:1009C000D4962D913C91D597241B350B53963C938F
:1009D0002E93529752968D919C9197FD01969595E5
:1009E0008795840F951FEB81FC8191AF80AF95AB0C
:1009F00084AB97AB86ABF5ECEF16F9E0FF060CF491
:100A000065CFAB81BC8150968D919C915197D996C1
:100A10009C938E93D897E0E0F2E0D596FC93EE930A
:100A2000D497D796FC93EE93D69754964D925D92B9
:100A30006D927C925797E1E0DA96EC93DA97DB9629
:100A40001C92DB971D961C921D9717961C921E9266
:100A5000169728E532E01B963C932E931A971C9626
:100A60001C921C9784E690E053969C938E93529729
:100A70002DCF8B819C818F3F910511F461E04ECF8A
:100A8000F701FF27E255FF4FE491E33071F150F495
:100A9000E130D1F0E23019F1AB81BC81A038B10571
:100AA0006CF73BCFE73069F1E830A1F1E430A1F712
:100AB000809180008062809380002B813C81309304
:100AC0008B0020938A0005C084B5806884BD9B811B
:100AD00097BD0F5F1F4FBCE32B0E311C2FCE84B58B
:100AE000806284BDAB81A8BDF4CF80918000806816
:100AF00080938000EB81FC81F0938900E093880073
:100B0000E8CF8091B00080688093B0003B81309343
:100B1000B300DFCF8091B00080628093B0008B8102
:100B20008093B400D6CF81E0E981FA818087789400
:100B30000F900F900F900F90DF91CF91FF91EF9159
:100B4000BF91AF919F918F917F916F915F914F91E5
:100B50003F912F911F910F91FF90EF90DF90CF90D9
:100B6000BF90AF909F908F907F906F905F904F90CD
:100B70003F902F900F900FBE0F901F9018951092DE
:100B8000100210920F0288EE93E0A0E0B0E0809394
:100B9000110290931202A0931302B09314028AE000
:100BA00091E090930E0280930D0285EC90E090937B
:100BB0001A028093190284EC90E090931C028093B7
:100BC0001B0280EC90E090931E0280931D0281EC4A
:100BD00090E09093200280931F0282EC90E090932B
:100BE00022028093210286EC90E09093240280936D
:100BF00023021092260210922702109228021092CD
:100C000029021092B6021092B50282E090E0909311
:100C1000B8028093B7028CEA92E09093AB02809383
:100C2000AA0281E08093AD028CE390E00E949908D3
:100C3000FC018EE090E0918380838FEF9FEF9383A0
:100C400082839583848382E090E0A0E0B0E0808F8F
:100C5000918FA28FB38FDF015C96CF01C0961D925A
:100C60001D928A179B07D9F71586178216828EEE7A
:100C700092E093878287148610AA11AA12AA13AA57
:100C8000148A158A168A178A80E092E095AB84ABA5
:100C900097AB86AB86E292E0918B808B91AF80AF71
:100CA00084E690E0938B828B81E082AF13AE17864F
:100CB0001686F093AF02E093AE020895CF93DF93D0
:100CC000CDB7DEB7A1970FB6F894DEBF0FBECDBF8C
:100CD000789484B5826084BD84B5816084BD85B517
:100CE000826085BD85B5816085BD80916E00816023
:100CF00080936E00109281008091810082608093C9
:100D000081008091810081608093810080918000CA
:100D10008160809380008091B10084608093B100F5
:100D20008091B00081608093B00080917A008460EF
:100D300080937A0080917A00826080937A0080911B
:100D40007A00816080937A0080917A008068809335
:100D50007A001092C100E0911D02F0911E0282E023
:100D60008083E0911902F0911A021082E0911B0237
:100D7000F0911C028FEC808310922502E0912102F9
:100D8000F091220286E08083E0911F02F091200220
:100D9000808180618083E0911F02F0912002808138
:100DA00088608083E0911F02F0912002808180683A
:100DB0008083E0911F02F091200280818F7D8083EB
:100DC00060E087E00E94F001E091AE02F091AF0296
:100DD000118210828DE090E093838283F89486E202
:100DE00092E0918B808B91AF80AF7894F12CE12CC5
:100DF000D12CC12C8091AD028C151D0469F164F1D8
:100E00000091AE021091AF020E0D1F1DF8018281FC
:100E1000938197FD08C061E00E94F00160E0F80155
:100E200082810E94C201F8018481958197FD0DC0E5
:100E300061E00E94F001F801148161E0812F0E94BD
:100E4000F00160E0812F0E94C201FFEFCF1ADF0A9C
:100E50008CE3E80EF11CCECF0E9421026053784F44
:100E60008F4F9F4F6093B0027093B1028093B20294
:100E70009093B3021092B4021092AC0210928000D0
:100E8000109282008CE0809381008CE790E0909338
:100E900089008093880082E080936F0078948BE1D2
:100EA00091E00E9485026CE271E080E090E00E9497
:100EB000460286E291E00E9485026CE271E080E0E9
:100EC00090E00E94460289E491E00E94850295EB41
:100ED000292E90E0392E21EA822E20E0922E3DE844
:100EE000A32E30E0B32E4AE0442E512C612C712CFD
:100EF000E091AE02F091AF0206811781F8948585EA
:100F000015867894882309F48FC081E691E00E94C9
:100F100078026801012E000CEE08FF08F7FE6AC097
:100F20006DE28DE092E00E942C0122273327A90177
:100F30002C193D094E095F0919A2FE01B1967F01E6
:100F4000CA01B901A30192010E945208605DF70134
:100F500062937F01211531054105510589F7E1149F
:100F6000F10419F0C7010E94780288E191E00E9423
:100F70007802065411090F31110508F455C087E6AF
:100F800091E00E9485028AE791E00E94850260ED6F
:100F900077E080E090E00E944602F1018491F40144
:100FA0001491F5010491002309F43AC081110E94C3
:100FB0009901E02FF0E0EE0FFF1FE458FF4FA591DD
:100FC000B4918C91182361F180910B0290910C02E5
:100FD000019690930C0280930B020397C4F186EC68
:100FE00091E00E94850288EA91E00E94850289EDE5
:100FF00091E018C0A701960119A2CE0181967C014B
:10100000CA01B901A30192010E945208605DF70173
:1010100062937F01211531054105510589F79FCF65
:1010200088EA91E00E94850264E170E080E090E04F
:101030000E94460280E090E0892B09F459CF0E947B
:10104000F600882309F454CF0E94000051CF88EFA6
:1010500091E0E8CFAA1BBB1B51E107C0AA1FBB1F31
:10106000A617B70710F0A61BB70B881F991F5A9534
:10107000A9F780959095BC01CD01089597FB072EA7
:1010800016F4009407D077FD09D00E942A0807FCC7
:1010900005D03EF4909581959F4F08957095619588
:1010A0007F4F0895A1E21A2EAA1BBB1BFD010DC0A4
:1010B000AA1FBB1FEE1FFF1FA217B307E407F50708
:1010C00020F0A21BB30BE40BF50B661F771F881FE4
:1010D000991F1A9469F760957095809590959B017A
:1010E000AC01BD01CF010895052E97FB1EF40094BD
:1010F0000E948B0857FD07D00E94520807FC03D0BE
:101100004EF40C948B0850954095309521953F4FA7
:101110004F4F5F4F089590958095709561957F4FE3
:101120008F4F9F4F0895EE0FFF1F0590F491E02D14
:1011300009940F931F93CF93DF938230910510F49E
:1011400082E090E0E091BB02F091BC0230E020E050
:10115000B0E0A0E0309799F42115310509F44AC0B8
:10116000281B390B24303105D8F58A819B81611504
:10117000710589F1FB0193838283FE0111C04081D7
:1011800051810281138148175907E0F04817590728
:1011900099F4109761F012960C93129713961C9382
:1011A0003296CF01DF91CF911F910F910895009357
:1011B000BB021093BC02F4CF2115310551F0421748
:1011C000530738F0A901DB019A01BD01DF01F801E5
:1011D000C1CFEF01F9CF9093BC028093BB02CDCF7A
:1011E000FE01E20FF31F819391932250310939835D
:1011F0002883D7CF2091B9023091BA02232B41F432
:1012000020910201309103013093BA022093B90278
:1012100020910001309101012115310541F42DB7D4
:101220003EB74091040150910501241B350BE0911C
:10123000B902F091BA02E217F307A0F42E1B3F0B9C
:101240002817390778F0AC014E5F5F4F2417350738
:1012500048F04E0F5F1F5093BA024093B90281933A
:1012600091939FCFF0E0E0E09CCFCF93DF93009786
:10127000E9F0FC01329713821282A091BB02B09177
:10128000BC02ED0130E020E01097A1F42081318113
:10129000820F931F2091B9023091BA0228173907A3
:1012A00009F061C0F093BA02E093B902DF91CF91E7
:1012B0000895EA01CE17DF07E8F54A815B819E01B8
:1012C00041155105B1F7E901FB83EA834991599131
:1012D000C40FD51FEC17FD0761F480819181029640
:1012E000840F951FE90199838883828193819B8371
:1012F0008A83F0E0E0E012968D919C91139700971D
:10130000B9F52D913C911197CD010296820F931F53
:101310002091B9023091BA022817390739F630976F
:1013200051F51092BC021092BB02B093BA02A09386
:10133000B902BCCFD383C28340815181840F951FF2
:10134000C817D90761F44E5F5F4F88819981480FB4
:10135000591F518340838A819B8193838283211506
:10136000310509F0B0CFF093BC02E093BB029ECFF1
:10137000FD01DC01C0CF13821282D7CFF894FFCFDA
:101380000000BD028000000000002C018C00B900AC
:101390007901EA00C800DC000D0A0048656C6C6F3A
:1013A000205369722100576520637265617465641A
:1013B00020612070756C73652053656E736F7220A9
:1013C0004F626A6563742021004120486561727430
:1013D000426561742048617070656E6564202120EB
:1013E0000042504D3A2000536972206172652079A5
:1013F0006F75204F4B2021213F00496620796F7582
:10140000204F4B2C20506C6561736520696E7465AC
:10141000722074686520414C495645205357495401
:101420004348203553454300537769746368696EB8
:101430006720746F206175746F6D617469632064D7
:1014400072697665720053697220596F75206172F6
:1014500065206E6F74204F4B004175746F64726924
:101460007665722077696C6C20676F20746F2068D6
:101470006F73626974616C00476F6F6420536972A7
:0214800000006A
:00000001FF
